:020000040800F2
:10000000F008002065010008ED190008B31500088C
:1000100000000000000000000000000000000000E0
:10002000000000000000000000000000F1190008BE
:100030000000000000000000EF190008F31900089C
:1000400077010008770100087701000877010008B0
:1000500077010008770100087701000877010008A0
:100060007701000877010008770100087701000890
:100070007701000877010008770100087701000880
:1000800077010008770100087701000800000000F0
:100090007701000877010008770100087701000860
:1000A000770100087701000877010008A121000806
:1000B0007701000877010008770100087701000840
:1000C00000F002F800F03EF80CA030C80838241800
:1000D0002D18A246671EAB4654465D46AC4201D180
:1000E00000F030F87E460F3E0FCCB6460126334274
:1000F00000D0FB1AA246AB463343184784220000C7
:10010000A4220000103A02D378C878C1FAD8520766
:1001100001D330C830C101D504680C6070470000BD
:100120000023002400250026103A01D378C1FBD813
:10013000520700D330C100D50B6070471FB51FBDFB
:1001400010B510BD00F07BF91146FFF7F7FF02F084
:1001500087F800F093F903B4FFF7F2FF03BC00F057
:1001600099F900000748804707480047FEE7FEE787
:10017000FEE7FEE7FEE7FEE704480549054A064BB1
:1001800070470000851A0008C1000008F002002036
:10019000F0080020F0040020F0040020FEB5054621
:1001A00010460C46184373D0AE468C460020AD1A5C
:1001B00001469C4167D36646002701243D46B61A96
:1001C0009D4102D313463A462124654676462F04C4
:1001D000360C3E432D0CB61A9D4104D3150C1B045E
:1001E0002B4312041034654676462F06360A3E43EA
:1001F0002D0AB61A9D4104D3150E1B022B43120281
:100200000834654676462F0736093E432D09B61A4F
:100210009D4104D3150F1B012B431201241D65467C
:100220007646AF07B6083E43AD08B61A9D4104D3E3
:10023000950F9B002B439200A41C65467646EF0762
:1002400076083E436D08B61A9D411AD392185B4159
:10025000641C16E00018764665464941B71A9D4170
:100260000191009009D36046B11A98418E468446A8
:10027000009801990025401C6941DD0752082A4376
:100280005B08641EE6D57246634603B0F0BDFFE727
:1002900000200146C046C0462A462346F5E701E055
:1002A00004C0091F0429FBD28B0701D50280801CE2
:1002B000C90700D00270704700290BD0C30702D0D5
:1002C0000270401C491E022904D3830702D5028014
:1002D000801C891EE3E70022EEE70022DFE7002210
:1002E00003098B422CD3030A8B4211D300239C4673
:1002F0004EE003460B433CD4002243088B4231D3EB
:1003000003098B421CD3030A8B4201D394463FE07E
:10031000C3098B4201D3CB01C01A524183098B42DE
:1003200001D38B01C01A524143098B4201D34B01C7
:10033000C01A524103098B4201D30B01C01A52412A
:10034000C3088B4201D3CB00C01A524183088B42B1
:1003500001D38B00C01A524143088B4201D34B009A
:10036000C01A5241411A00D201465241104670470C
:100370005DE0CA0F00D04942031000D34042534011
:1003800000229C4603098B422DD3030A8B4212D3D1
:10039000FC22890112BA030A8B420CD38901921103
:1003A0008B4208D3890192118B4204D389013AD040
:1003B000921100E08909C3098B4201D3CB01C01A15
:1003C000524183098B4201D38B01C01A5241430928
:1003D0008B4201D34B01C01A524103098B4201D316
:1003E0000B01C01A5241C3088B4201D3CB00C01A83
:1003F000524183088B4201D38B00C01A5241D9D29B
:1004000043088B4201D34B00C01A5241411A00D21B
:100410000146634652415B10104601D34042002B17
:1004200000D54942704763465B1000D3404201B596
:100430000020C046C04602BD7047704770477546F1
:1004400000F024F8AE46050069465346C008C000D7
:10045000854618B020B5FFF78FFE60BC002749081D
:10046000B6460026C0C5C0C5C0C5C0C5C0C5C0C54C
:10047000C0C5C0C5403D49008D46704710B5044613
:10048000C046C0462046FFF766FE10BD00487047D4
:100490008C02002001491820ABBEFEE726000200B6
:1004A000704730B5014620314A790023022A04D032
:1004B0000422C2630B71012030BD026814680E254E
:1004C000AC43146002681468640864001460446CEF
:1004D0001C22144001221546006CA54045604A715B
:1004E00018460B7130BD70B50024014620314A79A1
:1004F000022A03D00421C163012418E002681368B2
:100500000E25AB431360026813685B085B00136041
:10051000436C1C221340012215469D40036C5D6014
:100520004A7100220A71816B002900D08847204659
:1005300070BD000070B5044600F0F2F80546601C7E
:1005400002D004480078241800F0EAF8401BA042CA
:10055000FAD370BD08000020F8B50023032401255C
:10056000C2E032462E469E40B446324079D00E79E3
:10057000B607B60F012E01D0022E17D18668274686
:10058000B6465E00B74000967646BE43B646CF6894
:10059000009EB74076463743876046686746BE434D
:1005A0000F79FF06FF0F9F40374347600E79F643F0
:1005B000B6070ED0C6682746B4465E00B646B740BA
:1005C0006646BE43B4468F687646B74066463743B4
:1005D000C7600E79B607B60F022E14D1DE08B6003A
:1005E00036180096366A5F07B446FE0E0F27B646E9
:1005F000B7406646BE43B4460F697646B740664686
:100600003743009E376206682746B4465E00B6460A
:10061000B7406646BE430F79B446BF07BF0F764664
:10062000B7406646374307604E68B603B60F5AD0E8
:10063000304F7E6B2E437E639F082F4EBF00BE1946
:100640000096B6680F27B4469E07360FB646B740E9
:100650006646BE4305273F07B446B84202D100278D
:100660001AE040E0254FB84201D1012714E0244FA1
:10067000B84201D102270FE0224FB84201D103272F
:100680000AE0214FB84201D1042705E01F4FB842CC
:1006900001D1052700E006277646B7406646374376
:1006A000009EB7601A4EB6684F689643FF0200D5A9
:1006B0001643174FBE60FE684F689643BF0200D5D1
:1006C0001643134FFE607E684F689643BF0300D504
:1006D00016430F4F7E603E684F689643FF0300D578
:1006E00016430B4A16605B1C0A681646DA4000D0B7
:1006F00037E7F8BD00100240000001400004005040
:1007000000080050000C005000100050001C005069
:1007100000040140002A01D0816170478162704766
:100720000148806870470000080000200248816886
:1007300002788918816070470800002010B50848C9
:1007400000240168402211430160204600F00AF8AD
:10075000002801D0012401E000F026F8204610BD59
:100760000020024070B504460D4D7D202978C00060
:10077000FFF7B5FD01460B480068FFF7B0FD00F03C
:1007800097FC002809D1042C07D200222146401EE4
:1007900000F022F800206C6070BD012070BD0000E8
:1007A00008000020140000200448416B012211437E
:1007B0004163816B02041143816370470010024062
:1007C000002805DBC106C90E0120884001490860E8
:1007D0007047000000E100E010B501F00FFD10BD12
:1007E000F8B5044600680027714D810601D4000564
:1007F0007ED56F4E403EB06BC00004D4B06B310468
:100800000843B06301276B480168C90511D401682A
:10081000821511430160FFF783FF009005E0FFF7A9
:100820007FFF0099401A642844D862480068C005D8
:10083000F5D5316803200005626801401040884208
:1008400005D10323A0681B051840884208D09003F7
:10085000800F032804D13068800301D50120F8BD42
:10086000286903210904084029D00A40824202D0A5
:100870002278920606D4A2680A4082421FD02088BD
:10088000000531D528692A6988430121C9040A4332
:100890002A612A698A432A612861C0050FD5FFF7BA
:1008A0003FFF009008E0FFF73BFF0099411A4248E4
:1008B000814201D90320F8BD28698005F3D520883D
:1008C000000511D5A1688803800F032805D132687F
:1008D0000005824301400A43326028690322A1686F
:1008E00012041140084328612078800613D500E0E7
:1008F00018E061688803800F032805D1326800057D
:10090000824301400A43326028690322616812046D
:10091000114008432861002F04D0B16B012000076B
:100920008143B1632078C00705D0E868E16880089A
:1009300080000843E8602078800705D5E8680C212E
:10094000884321690843E8602078400706D5E868B5
:1009500003218902884361690843E8602078000721
:1009600006D5E868032109038843A1690843E860C4
:100970002088C00506D5E868032109048843E16999
:100980000843E8602078400606D5E868012189061A
:100990008843616A0843E8602078000606D5E86865
:1009A000032189048843216A0843E8600020F8BDD8
:1009B000401002400070004088130000F8B50E4659
:1009C000050038D05E480068C007C00FB04214D29E
:1009D0005B4C20684008400030432060FFF7A0FED9
:1009E000074605E0FFF79CFEC11B564881427AD8B6
:1009F0002068C007C00FB042F4D12878524C80075D
:100A000005D5E068F0218843A9680843E0602878AC
:100A1000C00752D06868022806D0032807D0216892
:100A200001280AD0890504E02168890301E02168D2
:100A30008901002903DB0120F8BD4907F9E7E168D6
:100A4000890889000143E160FFF76AFE074668688C
:100A500002280AD0032814D001281ED029E0FFF76D
:100A60005FFEC11B374881423DD8E0680007800F18
:100A70000228F4D121E0FFF753FEC11B3148814227
:100A800031D8E0680007800F0328F4D115E0FFF7A4
:100A900047FEC11B2B48814225D8E0680007800F24
:100AA0000128F4D109E0FFF73BFEC11B2548814234
:100AB00019D8E0680007800FF5D121480168C907FF
:100AC000C90FB14217D90168490849003143016093
:100AD000FFF726FE074608E005E0FFF721FEC11BF1
:100AE0001848814201D90320F8BD15480068C007A5
:100AF000C00FB042F1D12878400706D5E068072141
:100B000009028843E9680843E0602878000707D5B0
:100B1000E0680721C90288432969C9000843E060E9
:100B200000F03AF8E168094A0906090F515CC8402B
:100B30000749086007480068FFF714FEF8BD000089
:100B40000020024088130000001002405E230008CD
:100B5000140000200C000020044805490068C96802
:100B6000044A4905490F515CC840704714000020F1
:100B70000010024077230008044805490068C9684E
:100B8000044A8904490F515CC84070471400002092
:100B9000001002407723000870B51A4AD3681A493A
:100BA0000C2018408D0004280CD04E00082810D0CE
:100BB0000C2810D050680004410F0120C003491CCC
:100BC000884070BD1068C00601D5084670BD284633
:100BD00070BD304670BD98020C4C000F205C1B02AB
:100BE0009C0FD368641CDB0301D5314603E0126817
:100BF000D20600D4294601F0DBFA22460023FFF793
:100C0000CDFA70BD0010024000093D006E230008BF
:100C1000FEB505007ED0F74CE7680C20E66807407B
:100C20000120000406402878C00747D0082F05D0CF
:100C30000C2F0AD101200004864206D120688003CF
:100C40003CD568680028E5D038E0012069680004D8
:100C5000814203D121680143216011E00523012273
:100C60001B0492049942216802D111432160F1E7EB
:100C700081432160216801400091206890432060F9
:100C8000686800280DD0FFF74BFD009005E0FFF7E6
:100C900047FD0099401A64287ED820688003F6D565
:100CA0000CE0FFF73DFD009005E0FFF739FD0099EE
:100CB000401A6428F0D820688003F6D4287880078A
:100CC0005DD5E868810604D5226820210A432260A8
:100CD00088430923042F0DD00C2F01D1002E09D0F9
:100CE00000283CD02168994301432160FFF718FD9B
:100CF000064628E02168490701D500288AD06168A6
:100D00001F22120291432A69120211436160216875
:100D1000994300E0C7E101432160FFF73DFFE1682F
:100D200009060A0FB449895CC840B4490860B44850
:100D30000068FFF717FD002874D120E0FFF7F0FCF2
:100D4000801B0228A8D820684007F7D560681F21BB
:100D50000902884329690902084360600FE020689E
:100D6000400840002060FFF7DBFC064604E0FFF788
:100D7000D7FC801B02288FD820684007F7D428783A
:100D8000C00661D5002F0DD0E86900284BD020683F
:100D9000FF210131084300E0EAE02060FFF7C0FCDA
:100DA00006462DE02068800502D5E8690028A5D018
:100DB0006068072149038843696A08436060606886
:100DC000298C0002000A090608436060686A410B2A
:100DD0000120C003491C8840E16809060A0F8649C2
:100DE000895CC8408549086085480068FFF7BAFCFF
:100DF000002817D128E0FFF793FC801B0228A1D818
:100E000020688005F7D56068072149038843696A2F
:100E1000084360606068298C0002000A09060843E4
:100E2000606011E025E12168FF20013081432160ED
:100E3000FFF776FC064604E0FFF772FC801B0228F1
:100E400099D820688005F7D428786E4E000724D5FD
:100E500068690028306910D0012108433061FFF72C
:100E60005FFC009005E0FFF75BFC0099401A022848
:100E70007ED830698007F6D50FE040084000306129
:100E8000FFF74EFC009005E0FFF74AFC0099401A7E
:100E900002286DD830698007F6D42878400764D5D9
:100EA00000200290A06BC00006D4A06B01210907AE
:100EB0000843A0630120029053480168C90511D47A
:100EC0000168821511430160FFF72AFC009005E0DC
:100ED000FFF726FC0099401A642849D84A48006860
:100EE000C005F5D5FF20AA680130824203D13169DF
:100EF0000143316111E001218902002A07D0052355
:100F00001B029A4203D132690A433261EFE7326928
:100F100082433261306988433061A86800280ED06E
:100F2000FFF7FEFB009006E0FFF7FAFB0099411A7D
:100F3000364881421CD830698005F5D50DE0FFF7B1
:100F4000EFFB009006E0FFF7EBFB0099411A2F48FA
:100F500081420DD830698005F5D40298002804D06C
:100F6000A16B012000078143A1632878800600E07F
:100F70007EE02ED52648A9694314002916D0A26820
:100F800001210A43A260626B0A436263016A19434A
:100F90000162FFF7C5FB064604E0FFF7C1FB801BBB
:100FA000022865D8A0688007F7D512E0A168490833
:100FB0004900A160016A99430162FFF7B1FB06464F
:100FC00004E0FFF7ADFB801B022851D8A068800722
:100FD000F7D4A86A002868D00C2F4FD00126360617
:100FE0000228206816D0B0432060FFF799FB054621
:100FF00040E00000001002405E23000814000020C2
:101000000C000020401002400070004088130000D7
:1010100000000140B0432060FFF782FB074604E078
:10102000FFF77EFBC01B022822D820688001F7D47E
:10103000296BE86AE2680843696BFD231B049A4345
:1010400011430843E060206830432060FFF768FBED
:10105000054604E0FFF764FB401B022808D820681F
:101060008001F7D521E0FFF75BFB401B022801D987
:101070000320FEBD20688001F5D416E00128F8D0D9
:10108000E06801210904EA6A014091420BD10F2175
:1010900089042A6B0140914205D10321890508404A
:1010A000696B884201D00120FEBD0020FEBD704763
:1010B000094910B5401E884201D9012010BD074CD6
:1010C00060610321081F01F099F80020A06107204A
:1010D0002061002010BD0000FFFFFF0000E000E0E5
:1010E00010B5FFF7E4FF10BD704770477047000070
:1010F000F8B502680446D06911689368A44D0646A5
:101100002E4025468035002E71D0A24FDE07F60F07
:101110000F4037437ED0C70706D0CF0504D501273F
:1011200017626A683A436A60820708D5DA0706D010
:10113000276802223A626A6804273A436A604207D3
:1011400008D5DA0706D0236804221A626A680223E7
:101150001A436A60020709D520220A40324305D0AB
:10116000236808221A626B6813436B60020509D575
:101170004A0107D501222368D2021A626A68202335
:101180001A436A606A68002A39D0800606D5880644
:1011900004D5A16E002901D02046884768682168DF
:1011A0008968490602D4282108422DD0204600F043
:1011B0003BFD21688868400622D5EFF310800122AC
:1011C00082F310888A6840239A438A6080F31088EB
:1011D000606F002814D070498163606FFFF783F956
:1011E00000280CD0606F816B08E000E012E08606FA
:1011F00010D58E060ED5A16EAFE020468847F8BD0B
:101200002046FFF773FFF8BD2046FFF76FFF002071
:101210006860F8BD266E012E7DD1C6067BD5CE0650
:1012200079D510231362226890682646400640361E
:10123000002849DA616F086840680004000CE8D0B3
:10124000378B8742E5D9708308680068800634D4FC
:10125000EFF31080012181F3108811681F01B94359
:10126000116080F31088EFF31080012181F3108862
:1012700021688A68520852008A6080F31088EFF370
:101280001080012181F3108821688A684027BA43C1
:101290008A6080F310882020286000202066EFF309
:1012A0001080012181F3108821680A689A430A603E
:1012B00080F31088606FFFF7F4F802206066308BCF
:1012C000718B401A81B234E0308B718B401A81B23D
:1012D000708B00289DD000299BD0EFF31080012651
:1012E00086F310881668FF272137BE43166080F307
:1012F0001088EFF31080012282F31088226896682C
:1013000076087600966080F3108820202860002000
:101310002066A06600E010E0EFF31080012282F367
:101320001088226815689D43156080F3108802209C
:1013300060662046FFF7D8FEF8BDC50208D55B02FF
:1013400006D50120000510622046FFF7CEFEF8BD4D
:10135000030606D50B0604D5E16E002900D04CE744
:10136000F8BD4006FCD54806FAD52046EFF31081BB
:10137000012383F3108813684024A343136081F38F
:1013800010882021C1670021C16600F011F9F8BD65
:101390000F08000020010004151C000810B504000F
:1013A00003D0E06F002802D007E0012010BD00212B
:1013B00078200155204600F027F82420E0672068B7
:1013C0000168490849000160204600F035FD012808
:1013D000ECD0606A002802D0204600F054FB206860
:1013E00041680922D20291434160206881682A2223
:1013F0009143816020680168012211430160204609
:1014000000F0A6FB10BD000010B586B00446142104
:101410006846FEF762FF15492068884224D11448C7
:10142000416B0122920311434163C16A01221143BE
:10143000C162C06A694610400590032040020090D6
:1014400002200190002002900320039004200490C9
:1014500005200007FFF780F8002211461B20FFF748
:10146000BBF91B20FFF7ACF906B010BD00380140F6
:101470000010024070B580231B58202B01D00220A1
:1014800070BD00290BD0002A09D0012483682403F1
:10149000A34206D10369002B03D1CB0701D0012061
:1014A00070BD002303660B4B04689C420ED063683A
:1014B0001B020BD5EFF31083012585F310882568F7
:1014C0000126B6063543256083F3108800F0BEFD83
:1014D00070BD00000048004010B5092202490348D1
:1014E000FFF7C8FF10BD0000010000202800002009
:1014F000FFB50446C06F83B017460D46202802D0C2
:10150000022007B0F0BD002D0BD0002F09D0012024
:10151000A1680003814206D12069002803D1E807B1
:1015200001D00120EDE70021842001512120E06756
:10153000FFF7F6F826464036019037827782012081
:10154000A1680003814202D12069002802D02F4601
:10155000002511E000270FE000228021204600F046
:10156000D9FD002815D1002F17D02168387888625E
:101570007F1C708A401E7082708A019B002806982A
:101580000090E9D100224021204600F0C3FD002850
:101590000AD02020E0670320B3E728882168C0052F
:1015A000C00D8862AD1CE4E72020E0670020A8E7BA
:1015B0007047FEE710B50C480A4901604B21C9018C
:1015C000416000218160C16001618161C1610C22C3
:1015D000016242614162FFF7E1FE002801D072B66C
:1015E000FEE710BD0038014028000020F0B5064697
:1015F000C3B008200090BF486946027800250A72EF
:10160000022402A84E72032E09D004DC012E06D05B
:10161000022E0FD103E0042E01D0172E0AD1B54BB4
:101620006A4699880C0A9472D172D9880B0A13738E
:1016300051730624102E0BD006DC052E08D0062E82
:1016400006D00F2E0BD103E0162E01D0172E06D197
:10165000A84909890A0A0255641C0155641CA54958
:10166000A54B49891F880A0A3B0A9446CAB2FFB2B1
:10167000102E3DD006DC052E09D0062E0CD00F2EE4
:101680005CD10EE0162E4DD0172E57D130E06146BA
:101690000155641C025502E00355641C0755641C87
:1016A0004CE063460355641C02554A079149641C8B
:1016B0004989C908002A00D0491CCAB20255002134
:1016C0008D4B641C0DE0CF07FF0F0DD0002F06D00F
:1016D0004F087F00DF5B3F0A0755641CE4B2491CDA
:1016E000C9B29142EFD329E04F087F00DF5DF3E7F5
:1016F00063460355641C02554A00641C02550022CF
:10170000C9B2641C0BE07C4B5700DF5B3B0A0355FE
:10171000641CE3B2C7545B1C521CDCB2D2B29142CF
:10172000F1D80BE003557449641C07554988641CC3
:101730000A0A0255641C0155641CE4B26F4A002772
:1017400007E002A8C15D104600F07AFD7F1C02464A
:10175000FFB2A742F5D302AF3A55641CE0B2110ABA
:101760003954401CC4B20020385500F013F921460A
:1017700002A800F017F9002400F0D8F8019000F05A
:10178000F5F8002808D000F0E1F83855641C0098FE
:10179000E4B2401EC0B20090052C2DD16846017AFB
:1017A00054480078814201D0E0259AE06846407AAA
:1017B0004106490EB14201D0E12592E0C10902D0B3
:1017C0006846857A27E0062812D006DC030000F080
:1017D00007FD06130C0C0C0C0F130F2808D0102853
:1017E00006D0162806D0172806D16846807A02E06F
:1017F000032000E00520009000F098F80199401ABD
:101800007D210901884200D9E2250098002802D0F4
:10181000002DB4D065E0002D63D1052C18D300262F
:10182000A11E3648009105E0B95D00F009FD761C67
:101830000099F6B28E42F7DB391920398B7FC2B29C
:101840009A4203D1020AC87F824201D0E32548E0D0
:101850006846407A03282ED004DC012807D00228ED
:101860003FD104E0042826D017283AD123E0694666
:10187000897A00204C080EE0402808D24600F3196F
:101880001A79DB781202D2181B4B803B9A53194A03
:10189000D070401CC0B28442EED8C90721D0402885
:1018A00005D24200D119144BC978803B9952114995
:1018B000401CC87015E06A46927A00200D49540811
:1018C0000DE0402808D24600F319DA781B7912029D
:1018D000D218094B803B9A53C870401CC0B2844256
:1018E000EFD804490020487088818870284643B0AA
:1018F000F0BD00001800002030010020FFFF0000B4
:1019000010B5034800214170818100F013F810BD2B
:101910001800002010B5044B18709980DA8003205D
:10192000FFF764FE10BD00001800002010B5FEF7A0
:10193000F7FE10BD044910B50846C822143800F05F
:10194000EDFC012010BD0000C401002010B5FF24F3
:10195000054800F0EBFC002803D1034800F0EEFC42
:101960000446204610BD0000B001002010B5084814
:10197000807C012802D1064800F0CAFC044800F02F
:10198000D5FC002801D0002010BD012010BD0000B2
:10199000B001002010B5024800F0BAFC10BD0000F4
:1019A000B00100200A4610B50146FF230D48FFF79D
:1019B0009FFD002801D0012010BD0524012124072E
:1019C0000022C9022046FEF7A5FE012100220903DC
:1019D0002046FEF79FFE002280210348FEF79AFE74
:1019E000002010BD28000020000400507047704700
:1019F000704710B5FEF79AFEFFF772FB10BD0000AE
:101A000030B59DB038216846FEF767FC142118A850
:101A1000FEF763FC28210EA8FEF75FFC184801685A
:101A20000322D2029143C214891801601020009051
:101A300005200024400301250990079508940A9485
:101A40006846FFF7E5F8002801D072B6FEE70F20E0
:101A5000189019941A941B9400211C9418A8FEF74E
:101A6000ADFF002801D072B6FEE70EA80E951194C6
:101A7000FEF7B6FE002801D072B6FEE71DB030BDFD
:101A800000700040704710B5818CC90707D001680D
:101A90004A6801235B049A43836A1A434A60818C33
:101AA000890707D501684A6801231B049A43C36A62
:101AB0001A434A60818C490707D501684A680123A7
:101AC0009B049A43036B1A434A60818C090707D52C
:101AD00001684A680123DB039A43436B1A434A6057
:101AE000818CC90607D50268916801231B039943BD
:101AF000836B19439160818C890607D501688A68D8
:101B000001235B039A43C36B1A438A60818C4906A5
:101B100012D503685A6801210905046C8A432243DF
:101B20005A60026C8A4207D10268516803235B0540
:101B30009943436C19435160818C090607D50168AC
:101B40004A680123DB04806C9A4302434A6010BD5B
:101B5000FEB507460025803704467D60FEF7E0FDB0
:101B6000019020680068264600076036002819DAD0
:101B7000274800900121002249052046019B00F0E2
:101B8000C9FA00280ED0EFF31080012181F31088EC
:101B900021680A6880239A430A6080F31088202015
:101BA000E06729E020680068400728D518480090C1
:101BB0000121002289052046019B00F0ABFA002894
:101BC0001DD0EFF31080012181F3108821680A688D
:101BD000FF2321339A430A6080F31088EFF31080CB
:101BE000012181F3108821688A68520852008A60B6
:101BF00080F310882020386035760320FEBD202039
:101C0000E06738602566656635760020FEBD000019
:101C1000FFFFFF0110B5806A0022014640314A8370
:101C20004A82FFF763FA10BD10B5EFF3108101226D
:101C300082F3108802681368FF242134A3431360E1
:101C400081F31088EFF31081012282F3108802687B
:101C500093685B085B00936081F31088016E012933
:101C60000BD1EFF31081012282F310880268136810
:101C70001024A343136081F31088202280210A508E
:101C800000210166816610BD70B5014640310346F2
:101C900080338C8B1D680268222D04D09069082146
:101CA0000843906170BD526A456D22402A80426DA2
:101CB000921C42654A8B521E4A834A8B002AF1D1FC
:101CC000EFF31082012484F3108804682568FF264E
:101CD0002136B543256082F31088EFF3108201248A
:101CE00084F310880468A5686D086D00A56082F310
:101CF000108820221A60002383664366174A04680E
:101D000094420ED0626812020BD5EFF310820125C7
:101D100085F3108825680126B606B543256082F351
:101D20001088026E012A02D0FFF7D6FB70BD036651
:101D3000EFF31082012383F31088046825681023D1
:101D40009D43256082F310880268D469E443E40669
:101D500000D41362098BFFF7C7F970BD004800403B
:101D600070B501464031034680338C8B1D68026894
:101D7000222D04D0906908210843906170BD526AF9
:101D80002240446D2270426D521C42654A8B521EA5
:101D90004A834A8B002AF1D1EFF31082012484F3A5
:101DA000108804682568FF262136B543256082F334
:101DB0001088EFF31082012484F310880468A5686A
:101DC0006D086D00A56082F3108820221A60002340
:101DD00083664366174A046894420ED06268120212
:101DE0000BD5EFF31082012585F3108825680126B5
:101DF000B606B543256082F31088026E012A02D030
:101E0000FFF76AFB70BD0366EFF31082012383F3D3
:101E100010880468256810239D43256082F310888C
:101E20000268D469E443E40600D41362098BFFF727
:101E30005BF970BD00480040F8B504460168806851
:101E40002269E66910436269002532431043754BED
:101E50000A68754E324002430A60206841680322D6
:101E600012039143E268114341602168A0699942DD
:101E700001D0226A10438A680B263602B24302431D
:101E80008A606A4922686A488A420CD1C068800721
:101E9000800F06D001283FD002283BD0032827D14D
:101EA00024E0012725E063498A420AD1C0680C2159
:101EB00008402DD004282FD008282BD00C2817D16B
:101EC00014E05D498A4223D05C498A4220D09A427C
:101ED0000ED1C16803208002014019D00120800288
:101EE000091A19D0091A15D0814201D1082700E03A
:101EF00010274F495248403986009A4234D1002F6A
:101F00000CD0022F0DD0042F10D0082F7ED128E046
:101F10000027EEE70227ECE70427EAE7FEF71CFEBE
:101F200006E00968C90605D4304603E0FEF734FE32
:101F3000002872D0626851005118814266D811039E
:101F4000814263D3010E0602500800233018594124
:101F5000FEF724F9032109023A4A411A91425AD95B
:101F600054E00120C003E5E70122E369D203934274
:101F70002AD13B0000F034F90906090C4A114A4AFB
:101F80004A264A00FEF7E8FD09E0FEF7F5FD06E007
:101F90000968C90605D4304603E0FEF7FDFD0028B8
:101FA0003BD0616840004A088018FEF798F9014666
:101FB000254A1039914229D8511C01400007400F91
:101FC000084328E01046ECE73B0000F009F9090659
:101FD000090C1F111F1F1F211F00FEF7BDFD09E087
:101FE000FEF7CAFD06E00968C90605D4304603E0DD
:101FF000FEF7D2FD002810D061684A081018FEF7DD
:102000006EF902461049103A8A4203D9012504E0CC
:102010001046F1E780B22168C8600020A066E06643
:102020002846F8BD00480040F369FFEF0038014042
:102030004010024000440040004C0040005000406E
:1020400000093D00FFFC0F00EFFF000070B5416587
:10205000014640310A834A83002383660122846853
:102060001203FF25944204D10469002C13D1264C9D
:102070000AE07F26002C09D001252D07AC420CD1A7
:102080000469002C05D03F248C8307E00469002CF0
:1020900001D08E8302E08D8300E08B830146803186
:1020A0004B6022230B60EFF31081012383F3108830
:1020B00003689C6801252C439C6081F3108881682B
:1020C000914202D1016900290ED01049816601694F
:1020D00000290BD0EFF31081012282F310880068F1
:1020E0000268FF23213309E009498166EFF310817B
:1020F000012282F310880068026820231A430260DC
:1021000081F31088002070BDFF010000611D0008F0
:10211000891C0008FFB5064681B080360546044696
:1021200060350A9F2EE0781C2CD0FEF7F9FA04994E
:10213000401AB84214D8002F12D02068016849070D
:1021400020D5C169C94309070CD408270762204676
:10215000FFF76AFD776000202876012005B0F0BD0A
:102160000320FBE7C069C04300050BD401202168B0
:10217000C00208622046FFF757FD20207060002053
:102180002876EDE72068C1690298884305D00021D0
:1021900003988142C7D00020E0E70121F8E7000062
:1021A00010B50248FEF7A4FF10BD00002800002073
:1021B000F8B5040C8BB2264682B25E430D0C104675
:1021C000370C5843360480190021794116466E4376
:1021D000370C36048019794126466E438919F8BDBB
:1021E00030B47446641E2578641CAB4200D21D4690
:1021F000635D5B00E31830BC184700008307FF22D3
:10220000DB0E9A408907090E9940002808DB8308F5
:1022100009489B001B1818689043084318607047D2
:102220000007000F0838830804489B001B18D86972
:1022300090430843D861704700E400E000ED00E0FF
:102240004840064A0021C30702D04008504000E041
:102250004008491C0829F6DB7047000001A0000077
:1022600086B0FEF76BFAFFF7CBFB14216846FEF74A
:1022700034F82348C16A01242143C162C06A05259C
:102280002040E7022D070590002239462846FEF738
:1022900041FA002002900390694600970194284675
:1022A000FEF75AF9FFF786F9FFF72AFB07221549CF
:1022B0001548FFF7DFF8134C7D26641E3601012216
:1022C00039462846FEF726FA012210491046FFF744
:1022D00021FB20703046FEF72DF90C490122491CE4
:1022E0001046FFF717FB20703046FEF723F9074929
:1022F0000122491E1046FFF70DFB2070DFE70000AA
:102300000010024001000020280000202D070000DE
:1023100001688160C1600021817470478B180AC018
:102320000160416002810021817270478168C0684C
:10233000814201D10120704700207047C268816846
:102340008A4201D100207047511CC1604368127855
:10235000994202D1038AC91AC16010467047000031
:10236000000000000000010203040607080903043E
:1023700006080C10182030000000000102030400C1
:10238000A02300080000002028000000040100082D
:10239000C823000828000020C80800002001000809
:1023A0000000000000000000010000000400000028
:1023B00000000000000020000000000000000000FD
:0823C000000000000000000015
:04000005080000C12E
:00000001FF
